:1000000045C0000060C000005EC000005CC0000091
:100010005AC0000058C0000056C0000054C0000084
:1000200052C0000050C000004EC000004CC0000094
:100030004AC0000048C0000046C0000044C00000A4
:1000400050C0000040C000003EC000003CC00000A6
:100050003AC0000038C0000036C0000034C00000C4
:1000600032C0000030C000002EC000002CC00000D4
:100070002AC0000028C0000026C0000024C00000E4
:1000800022C0000020C000001EC0000011241FBEBE
:10009000CFEFD0E1DEBFCDBF11E0A0E0B1E0E6EAF6
:1000A000F1E000E00BBF02C007900D92A030B10755
:1000B000D9F721E0A0E0B1E001C01D92A430B20761
:1000C000E1F741D06EC09CCF83B7877B83BF83B7F6
:1000D000836083BF87B7816087BF86E082BF7894E3
:1000E00008951F920F920FB60F9211248F939F9332
:1000F000AF93BF9386E082BF809100019091010190
:10010000A0910201B09103010196A11DB11D809340
:10011000000190930101A0930201B0930301BF91EC
:10012000AF919F918F910F900FBE0F901F901895D8
:10013000F894609100017091010180910201909109
:10014000030178940895C0DF8FEF8ABB87BB1BBA89
:1001500018BA812C912C5401C12CD12C7601E8DFE6
:100160008B019C010C191D092E093F09083E134003
:100170002105310528F028B3209528BB6B017C01AF
:100180008B019C01081919092A093B09043F1140F8
:100190002105310520F32BB320952BBB4B015C01CE
:0601A000DECFF894FFCF52
:00000001FF
