:1000000045C0000053C0000051C000004FC00000B8
:100010004DC000004BC0000049C0000047C00000B8
:1000200045C0000043C0000041C000003FC00000C8
:100030003DC000003BC0000039C000004EC00000C1
:1000400035C0000033C0000031C000002FC00000E8
:100050002DC000002BC0000029C0000027C00000F8
:1000600025C0000023C0000021C000001FC0000008
:100070001DC000001BC0000019C0000017C0000018
:1000800015C0000013C0000011C0000011241FBEE5
:10009000CFEFD0E1DEBFCDBF21E0A0E0B1E001C0F5
:1000A0001D92A430B207E1F73DD06BC0A9CFF89400
:1000B0006091000170910101809102019091030112
:1000C0007894089588E083BF83B7836083BF89EF06
:1000D00081BF87B7826087BF08951F920F920FB6C6
:1000E0000F9211248F939F93AF93BF938091000140
:1000F00090910101A0910201B09103010196A11D0F
:10010000B11D8093000190930101A0930201B0936F
:100110000301BF91AF919F918F910F900FBE0F90F0
:100120001F9018958FEF87BB8ABB18BA1BBACADF1E
:100130007894812C912C5401C12CD12C7601B7DFFD
:100140008B019C010C191D092E093F09043F114028
:100150002105310528F028B3209528BB6B017C01CF
:100160008B019C01081919092A093B09083E134013
:100170002105310520F32BB320952BBB4B015C01EE
:06018000DECFF894FFCF72
:00000001FF
